:1000000045C0000053C0000051C000004FC00000B8
:100010004DC000004BC0000049C0000047C00000B8
:1000200045C0000043C0000041C000003FC00000C8
:100030003DC000003BC0000039C0000037C00000D8
:1000400035C0000033C0000031C000002FC00000E8
:100050002DC000002BC0000029C0000027C00000F8
:1000600025C0000023C0000021C000001FC0000008
:100070001DC000001BC0000019C0000017C0000018
:1000800015C0000013C0000011C0000011241FBEE5
:10009000CFEFD0E4DEBFCDBF21E0A0E0B1E001C0F2
:1000A0001D92A530B207E1F73DD07AC1A9CFAAE7EA
:1000B000B0E01C92ECE7F0E080818F7D808380814E
:1000C000806480838C9187688C930895ECE7F0E0DE
:1000D0009081907E8F71892B8083EAE7F0E08081A8
:1000E00080648083808184FFFDCF8091780020919F
:1000F0007900EAE7F0E0908190619083237090E0CE
:10010000922B089582EC8AB988EB84B911B82B9AA6
:10011000CEDF80E895E228D160E080E007D178D09A
:1001200078940895EFDFE0E0F1E0108281E08183D0
:1001300082E0828383E0838384E08483EF0110E4A0
:10014000029B02C05F9A01C05F98009902C05E9A4C
:1001500001C05E9881E0BADF988389838BB18127E3
:100160008BB92FEF83EC99E0215080409040E1F76C
:1001700000C00000E5CF2B9808952B9A0895CF93E7
:10018000DF9300D0CDB7DEB71A82198280E289836F
:10019000F2DF62E0CE010196D0D0EFDF0F900F903A
:1001A000DF91CF910895CF93DF9300D01F92CDB709
:1001B000DEB790E2998393E09A8388608B83DBDFDC
:1001C00063E0CE010196B9D0D8DF0F900F900F9069
:1001D000DF91CF910895CF93DF9300D01F92CDB7D9
:1001E000DEB719821A821B8280E3898382E08A83C8
:1001F000C2DF63E0CE010196A0D0BFDF8B81829584
:10020000869587700F900F900F90DF91CF91089592
:10021000FF920F931F93CF93DF9300D000D000D0B5
:10022000CDB7DEB784E0BFDF8FE39FE10197F1F741
:1002300000C00000D0DF843011F083E0A9D09FDF40
:10024000EFE3FFE13197F1F700C00000C4DF843035
:1002500011F083E09DD08E010F5F1F4F86E0F80103
:1002600011928A95E9F76894FF24F5F8F98284E001
:100270008A838FE08B838C838EE38D837CDF66E0C3
:10028000C8015BD07ADFF9828FE58A838FEE8B839A
:1002900072DF63E0C80151D070DFF9828CE58A8398
:1002A00080E88B8368DF63E0C80147D066DFF982AE
:1002B0008EE58A8380E68B835EDF63E0C8013DD0F4
:1002C0005CDFF9828BE68A8383E08B8354DF63E013
:1002D000C80133D052DF81E2898380ED8A8382E8CE
:1002E0008B8349DF63E0C80128D047DF8EE2898332
:1002F0008CE08A8381E08B833EDF63E0C8011DD000
:100300003CDF86E050DF8FE39FE10197F1F700C00B
:10031000000061DF26960FB6F894DEBF0FBECDBF9A
:10032000DF91CF911F910F91FF900895660F806527
:10033000862B8CBD1DBC1EBC08956623A1F0FC015C
:100340006150262F30E02F5F3F4F820F931FDF0158
:1003500020812EBD0DB407FEFDCF2EB52C93319616
:10036000E817F907A1F708951092C50087E6809372
:10037000C400E1E6F0E080E88083108288E18093A9
:10038000C10082E08093C00086E08093C20008959F
:10039000E0ECF0E0908195FFFDCF8093C6000895DA
:0403A000F894FFCFFF
:00000001FF
