S01E00005155544D535F4856426F6172645F4669726D776172652E73726563EB
S113000045C0000053C0000051C000004FC00000B4
S11300104DC000004BC0000049C0000047C00000B4
S113002045C0000043C0000041C000003FC00000C4
S11300303DC000003BC0000039C0000037C00000D4
S113004035C0000033C0000031C000002FC00000E4
S11300502DC000002BC0000029C0000027C00000F4
S113006025C0000023C0000021C000001FC0000004
S11300701DC000001BC0000019C0000017C0000014
S113008015C0000013C0000011C0000011241FBEE1
S1130090CFEFD0E4DEBFCDBF21E0A0E0B1E001C0EE
S11300A01D92A530B207E1F73CD0E8C3A9CFAAE777
S11300B0B0E01C92ECE7F0E080818F7D808380814A
S11300C0806480838C9187688C930895ECE7F0E0DA
S11300D09081907E8F71892B8083EAE7F0E08081A4
S11300E080648083808184FFFDCF8091780020919B
S11300F07900EAE7F0E0908190619083237090E0CA
S1130100922B089582EC8AB988EB84B92B9ACFDFBD
S113011080E895E297D360E080E076D3A1D078942C
S11301200895CF93DF93CDB7DEB72D970FB6F8942C
S1130130DEBF0FBECDBFE6DFE0E0F1E0108281E07C
S1130140818382E0828383E0838384E08483FE016D
S1130150319688E0DF011D928A95E9F7AE014F5F81
S11301605F4FBE01635F7F4FCE01099601D289853F
S11301709A85AB85BC8580349240A105B10599F47C
S11301805E9A20E031E045E061E070E080E099E0D3
S1130190C9D28FEF90E7A2E081509040A040E1F7F0
S11301A000C000005E9881E091DFE0E0F1E0908320
S11301B08183BFEF23EC89E0B15020408040E1F718
S11301C000C00000CBCF2B9808952B9A0895CF93AD
S11301D0DF9300D0CDB7DEB71A82198280E289831B
S11301E0F2DF62E0CE01019616D3EFDF0F900F909D
S11301F0DF91CF910895CF93DF9300D01F92CDB7B5
S1130200DEB790E2998393E09A8388608B83DBDF87
S113021063E0CE010196FFD2D8DF0F900F900F90CC
S1130220DF91CF910895CF93DF9300D01F92CDB784
S1130230DEB719821A821B8280E3898382E08A8373
S1130240C2DF63E0CE010196E6D2BFDF8B818295E7
S1130250869587700F900F900F90DF91CF9108953E
S1130260FF920F931F93CF93DF9300D000D000D061
S1130270CDB7DEB784E0BFDF8FE39FE10197F1F7ED
S113028000C00000D0DF843011F083E0EFD29FDFA4
S1130290EFE3FFE13197F1F700C00000C4DF8430E1
S11302A011F083E0E3D28E010F5F1F4F86E0F80167
S11302B011928A95E9F76894FF24F5F8F98284E0AD
S11302C08A838FE08B838C838EE38D837CDF66E06F
S11302D0C801A1D27ADFF9828FE58A838FEE8B83FE
S11302E072DF63E0C80197D270DFF9828CE58A83FC
S11302F080E88B8368DF63E0C8018DD266DFF98212
S11303008EE58A8380E68B835EDF63E0C80183D257
S11303105CDFF9828BE68A8383E08B8354DF63E0BE
S1130320C80179D252DF81E2898380ED8A8382E831
S11303308B8349DF63E0C8016ED247DF8EE2898395
S11303408CE08A8381E08B833EDF63E0C80163D263
S11303503CDF86E050DF8FE39FE10197F1F700C0B7
S1130360000061DF26960FB6F894DEBF0FBECDBF46
S1130370DF91CF911F910F91FF9008950F931F93D9
S1130380CF93DF9300D01F92CDB7DEB78B0190E0FF
S11303909C01220F331F820F931F880F991F880F10
S11303A0991F8C5A9F4F19821A821B829F70905DED
S11303B099838A8308DF63E0CE0101962CD205DF9E
S11303C08B81982F9F70F80190830F900F900F905E
S11303D0DF91CF911F910F9108950F931F93CF93A6
S11303E0DF9300D01F92CDB7DEB78B0190E09C0164
S11303F0220F331F820F931F880F991F880F991F95
S11304008C5A9F4F19821A821B829F70905D998328
S11304108A83D9DE63E0CE010196FDD1D6DE8B81DD
S1130420982F9771F80190830F900F900F90DF91A0
S1130430CF911F910F9108956F927F928F929F9207
S1130440AF92BF92CF92DF92EF92FF920F931F93DE
S1130450CF93DF93CDB7DEB76B970FB6F894DEBFBB
S11304600FBECDBF3C014B01A42EB52E8901CE0198
S113047001967C0185E1F70111928A95E9F76E01F5
S1130480F6E1CF0ED11C86E0F60111928A95E9F7C8
S113049080E38E8B80E78F8B96DE66E0C601BBD14E
S11304A094DE288D398D8A8D90E0A0E0B0E0DC01E7
S11304B099278827932B822B9C5F9F70905D99834B
S11304C08A8381DE65E1C701A6D17FDE3B81F80125
S11304D030832C8121838D8182838E8183838F81DC
S11304E0848388858583898586838A858783832F0A
S11304F0922F9770A0E0B0E0F30180839183A283F0
S1130500B383F80184818F70F4018083F80110862D
S1130510118612861386FE013B96AA2DBB2D9E01E1
S11305202D5E3F4F81918D93E217F307D9F780E257
S11305308E8B88E68F8B81E0888F45DE63E0CE0169
S1130540469669D142DE6B960FB6F894DEBF0FBEB5
S1130550CDBFDF91CF911F910F91FF90EF90DF906E
S1130560CF90BF90AF909F908F907F906F900895A1
S1130570CF92DF92EF92FF920F931F93CF93DF936B
S1130580CDB7DEB72D970FB6F894DEBF0FBECDBF43
S11305908C017B016A01BE01635F7F4F82E0EEDE66
S11305A08D8580FF07C09E012F5F3F4FA601B701D5
S11305B0C80142DF2D960FB6F894DEBF0FBECDBF43
S11305C0DF91CF911F910F91FF90EF90DF90CF902B
S11305D00895AF92BF92DF92EF92FF920F931F9311
S11305E0CF93DF93CDB7DEB76B970FB6F894DEBF2A
S11305F00FBECDBF8C01D62EE72EF42EFE01319610
S113060085E1DF011D928A95E9F7842F8370B9F0A3
S113061044E050E0481B510998E09F0D41155105F5
S113062071F080E0BF01690F711DFB01E80FF11D3E
S113063010868F5F282F30E024173507B0F35E0152
S1130640B6E1AB0EB11C86E0F50111928A95E9F78B
S113065080E38E8B84E68F8BB6DD66E0C501DBD04C
S1130660B4DD288D398D8A8D90E0A0E0B0E0DC0106
S113067099278827932B822B9C5F9F70905E998388
S11306808A83D8018C918B8311968C9111978C83DA
S113069012968C9112978D8313968C9113978E8357
S11306A014968C9114978F8315968C91159788873F
S11306B016968C911697898717968C918A87FF20B6
S11306C079F0AD2DBE2DFE013B96FA949E012F0DBF
S11306D0311D245F3F4F8D918193E217F307D9F7C2
S11306E072DD65E1CE01019696D06FDD80E28E8BDE
S11306F08DE58F8B83E0888F66DD63E0CE014696BF
S11307008AD063DD6B960FB6F894DEBF0FBECDBF03
S1130710DF91CF911F910F91FF90EF90DF90BF90E9
S1130720AF9008958F929F92AF92BF92EF92FF92F3
S11307301F93CF93DF93CDB7DEB72D970FB6F89401
S1130740DEBF0FBECDBF142F7901493020F084E005
S11307508DD084E049C019821A821B821C821D82BA
S11307601E821F8218864B015C01072E72E1B6942B
S1130770A794979487947A95D1F7702D8982262F20
S1130780220F220F220F392D3770232B2A83272F74
S1130790220F220F220F362F329536953770232BD6
S11307A02B83272F2295269527703C81307E982F06
S11307B09370990F990F990F832F822B892B8C8318
S11307C0842F8F7080658D83BE01635F7F4F81E0CE
S11307D004DE8D8580FF07C0412FB701CE0101964D
S11307E0F8DE81E001C081E02D960FB6F894DEBFFB
S11307F00FBECDBFDF91CF911F91FF90EF90BF90BF
S1130800AF909F908F900895660F8065862B8CBD66
S11308101DBC1EBC08956623A1F0FC016150262F67
S113082030E02F5F3F4F820F931FDF0120812EBDE9
S11308300DB407FEFDCF2EB52C933196E817F907BA
S1130840A1F708951092C50087E68093C400E1E6FD
S1130850F0E080E88083108288E18093C10082E028
S11308608093C00086E08093C2000895E0ECF0E03D
S1130870908195FFFDCF8093C6000895F894FFCF33
S9030000FC
